:020000040001F9
:1040000028350020F1410100034201000542010072
:1040100000000000000000000000000000000000A0
:104020000000000000000000000000000742010046
:104030000000000000000000094201000B420100E6
:104040000D4201000D420100874901000D420100AF
:104050000D42010000000000CD6401000D4201008E
:104060000D4201000D4201000D4201000D42010010
:104070000D4201000D4201000D4201000D42010000
:104080000D420100116101000D4201000D420100CD
:10409000336101000D420100995701000D420100FA
:1040A0000D4201000D420100000000000000000070
:1040B0000000000000000000000000000000000000
:1040C00000F002F800F048F80CA030C808382418B6
:1040D0002D18A246671EAB4654465D46AC4201D140
:1040E00000F03AF87E460F3E0FCCB646012633422A
:1040F00000D0FB1AA246AB463343184754360000A3
:1041000074360000103A02D378C878C1FAD8520742
:1041100001D330C830C101D504680C60704700007D
:104120000023002400250026103A01D378C1FBD8D3
:10413000520700D330C100D50B60704710B5782905
:1041400002D103F057F810BD002010BD1FB5C046C6
:10415000C0461FBD10B510BD03F09FFA1146FFF712
:10416000F5FF00F043FC03F0B7FA03B4FFF7F2FFEA
:1041700003BC03F0BBFA0000401E00BF00BF00BF3D
:1041800000BF00BF00BF00BF00BF00BF00BF00BF37
:1041900000BFF1D170470000401E00BF00BF00BF4C
:1041A00000BF00BF00BF00BF00BF00BF00BF00BF17
:1041B00000BFF1D17047000070B505460C461646A9
:1041C00002E00FCC0FC5103E102EFAD2082E02D3FB
:1041D00003CC03C5083E042E07D301CC01C5361F0E
:1041E00003E021782970641C6D1C761EF9D270BD25
:1041F0000A48026803210A430260094880470948C7
:104200000047FEE7FEE7FEE7FEE7FEE7FEE7000009
:1042100005480649064A074B704700002405004040
:10422000CF420100C1400100282500202835002090
:10423000282D0020282D00202E482F490860704787
:104240002E48008CC0B2012810D12C48808C000769
:10425000000F0BD12948806AF0210840402805D181
:104260002648C06A084201D1012070470020FCE7BF
:104270002248008CC0B2012827D12048808C00073A
:10428000000F22D11D48806AF021084205D11B4849
:10429000C06A084201D1012070471848806AF021A5
:1042A0000840102805D11548C06A084201D10120F4
:1042B000F2E71248806AF0210840302805D10F4803
:1042C000C06A084201D10120E6E70020E4E710B50A
:1042D000FFF7CEFF002805D009480A494860C813F7
:1042E00009498861FFF7ACFF002802D00120074987
:1042F000886010BD0024F40000200020C00F00F0F2
:10430000DFFF07C000050040006C004000060040D1
:1043100010B5002819DAF74A03071B0F083B9B0862
:104320009B00D2588307DC0EFF23A3409A438B07E0
:104330001B0E8407E40EA3401A43EE4B0407240F20
:10434000083CA408A4001A5118E0EB4A03231B02FE
:10435000D21883089B00D2588307DC0EFF23A340AA
:104360009A438B071B0E8407E40EA3401A43E24BCB
:10437000032424021B198408A4001A5110BD00BF95
:10438000BFF34F8FDD48DB491C39C860BFF34F8F47
:1043900000BF00BFFEE703460C4622461946D84838
:1043A000FFF7EDFF704738B500BF0020D54B052261
:1043B0000321009001F0C1FE044600BF2346002BFC
:1043C00005D000BFD0A297211846FFF7D8FF00BF45
:1043D00000BF02F032FD38BDFEB500BF6846007870
:1043E00001090901491C009168460078F0218843C1
:1043F0001030009000BF02F027FC074602F060FF7B
:1044000085B202F021FC06462A46314668467CDF2A
:10441000044600BF2346002B05D000BFBAA2AC2142
:104420001846FFF7ACFF00BF00200190029010215A
:10443000684681803C21C18000210181FF219131AA
:10444000418101A87ADF044600BF2346002B05D036
:1044500000BFADA2B6211846FFF791FF00BF0020B4
:1044600077DF044600BF2346002B05D000BFA6A27D
:10447000BB211846FFF783FF00BFFEBD10B5A0B0FB
:1044800006210191A34800680090A348017868467E
:1044900081703C2111A802F094FF022011900021AC
:1044A00010A841720121818101A914913C2102A827
:1044B00002F087FF01216846818469460A9102A9BA
:1044C00011A800F0F9FE044600BF2346002B05D0DA
:1044D00000BF8DA2DA211846FFF751FF00BF20B0C0
:1044E00010BDF8B507460D461646002403E0285DCA
:1044F00001F0D0F9641CB442F9DBF8BD38B50020F6
:104500000090864800906946834800F0BDFB044651
:1045100000BF2346002B05D000BF7BA2FB2118461D
:10452000FFF72DFF00BF38BD1E207D4908800846DB
:10453000807840084000401C88700846807802213E
:10454000884377498870084680781C2188430C305E
:1045500073498870084680782021884370498870A4
:104560000720C87010200871704770B5054628688C
:10457000002810D13B216B48008876DF044600BF3D
:104580002346002B06D000BF5FA2FF212031184632
:10459000FFF7F5FE00BF70BD034600BF5AA2FF2122
:1045A0002B311846FFF7EBFE10B588B01C2101A88F
:1045B00002F007FF002001900520400402908010C7
:1045C0000390032168460174002141820175564819
:1045D00006905648079001A800F009FF044600BF66
:1045E0002346002B06D000BF47A2FF2142311846C8
:1045F000FFF7C5FE00BF08B010BD10B586B014218E
:1046000001A802F0DEFE0021684601710020029040
:1046100068460173A02181820021C18201A873DF55
:10462000044600BF2346002B06D000BF36A2FF2160
:1046300057311846FFF7A3FE00BF06B010BD74DF68
:10464000704770B505462888142851D006DC10281C
:104650000BD0112813D013284BD11DE0172841D0BF
:10466000192879D05228F7D129E0002002F074FCF3
:10467000A8882C4908802EA001F064F9AAE0012046
:1046800002F06AFC0020C04326490880FFF7B5FF0E
:104690002BA001F057F99DE0214A00212148008814
:1046A0007FDF044600BF2346002B06D000BF16A2C2
:1046B000FF2182311846FFF762FE00BF8AE0002228
:1046C000114618480088A9DF044600BF2346002B86
:1046D00006D000BF0CA2FF2187311846FFF74FFE1E
:1046E00000BF77E03222A91D1A4802F00BFE71E0EC
:1046F00033E06EE01CED00E000E100E00400FA05AC
:10470000EFBEADDEF42000202E2E5C6D61696E2EB2
:1047100063000000FC760100E4230020E344010074
:1047200008200020042000206B450100994501006D
:104730005F434F4E4E45435445442E2E2E000000FD
:104740005F444953434F4E4E45435445442E2E2E0D
:10475000000000003423002029E0C64E3188E8899B
:10476000814211D100223146C348008881DF0446CE
:1047700000BF2346002B06D000BFC04AFF21933163
:104780001846FFF7FCFD11E000221146BA480088E8
:1047900081DF044600BF2346002B06D000BFB74A86
:1047A000FF2199311846FFF7EAFD00BF12E0A87912
:1047B00000280DD131DF044600BF2346002B06D070
:1047C00000BFAE4AFF21A9311846FFF7D8FD00BF50
:1047D00000E000BF00BF70BD10B50446204600F0E9
:1047E000DAFE2146A64800F02CFA2046FFF729FF02
:1047F00010BD70B500BF00235022A249082000F070
:1048000084FF054600BF2B46002B06D000BF9B4A05
:10481000FF21CD311846FFF7B2FD00BF00BF9A4817
:1048200000F0A8FF044600BF2346002B06D000BFBF
:10483000924AFF21D1311846FFF7A1FD00BF70BD9C
:1048400070B505460E4600248B4800888F49884283
:1048500007D013218848008876DF04468CA001F039
:1048600071F870BD704710B53DDF044600BF2346A8
:10487000002B06D000BF814AFF21EE311846FFF71A
:104880007EFD00BF10BD10B50B2003218A0005235B
:104890001B07072424021B1984001A5100BF10BDF6
:1048A00010B502F0D4FB012804D100207F49C86371
:1048B000FFF7E9FF10BD10B57D480078002825DD21
:1048C0006F4880897149884208D100207949784A27
:1048D00012788854084602F019F914E074480278F6
:1048E0007449674800F0FCF90446082C0AD000BF60
:1048F0002346002B05D000BF604A6F491846FFF7DA
:104900003EFD00BF00BF00206949087010BD08B51A
:1049100000200C230A220B210090082000F0E5FF64
:1049200004206649486003210220FFF7F1FC0220C1
:1049300000F098F86249002002F08CFA61490320E7
:1049400002F088FA08BD08B55848C06BC007C00F10
:1049500014D101205549C86300200C230A220B21E1
:104960000090082000F0C1FF042054494860032152
:104970000220FFF7CDFC022000F074F80A2103208A
:1049800002F06EFA08BD10B500F04AFF4949484AE6
:104990001278885446480078401C45490870032125
:1049A000002002F05DFA36488089384988421CD0E0
:1049B0003F480078132818DB3D4802783D493048CD
:1049C00000F08EF90446082C0BD000BF2346002BC4
:1049D00006D000BF294A384917391846FFF7CFFCDF
:1049E00000BF00203249087000BF10BDFFF7DBFC9C
:1049F000FFF78DFF02F0DFF802F0E7FA32A000F0D7
:104A0000A1FFFFF7F6FEFFF7E7FCFFF777FDFFF7E3
:104A100035FDFFF7C9FDFFF787FD2EA000F092FFDF
:104A2000FFF7EBFD00BF2E4A0321084601F03EFFD1
:104A3000044600BF2346002B06D000BF0F4A2721A3
:104A400009011846FFF79BFC00BF00BF0321084681
:104A500002F006FA00BFFFF706FF02F018FA01F0B5
:104A6000E6FFF8E7C206D20E012191401D4A11600F
:104A7000704700003A23002004200020084701006E
:104A8000E423002068230020D9470100FFFF000035
:104A9000626C655F73746F705F63757272656E745C
:104AA0005F636F6E6E6563742E2E2E00C02F004004
:104AB00006200020F82300204E02000000230040C2
:104AC000B7480100A1480100696E697465642E2E23
:104AD0002E00000053746172742E2E2E0A00000006
:104AE000B823002000E100E08A888281704700221C
:104AF000D2438281704770B504460E46B51D2988A1
:104B00002089814213D1288B022810D100BF00BF19
:104B1000A97EEA7E120211430846C107C90F002987
:104B200002D00120A0730FE00020A0730CE02888C1
:104B3000A188884208D12069002805D02A8B2946FF
:104B40001A3120462369984770BD30B58FB00446AE
:104B50000D461C2108A802F034FC08A8007810219A
:104B60008843411808A8017000780821884341183B
:104B700008A80170007804218843011D08A801706D
:104B80003221684601856BA009900821684641855D
:104B900000200B900C900D900E9021786846817249
:104BA000674901810020019000BF68460079010932
:104BB0000901491C684601710079F02188431030D1
:104BC0006946087100BF00BF6846407901090901C4
:104BD000491C684641714079F0218843103069468C
:104BE000487100BF6846807906218843811C684669
:104BF00081718079082188430146684681718079F6
:104C00001021884301466846817180794108490036
:104C1000491C68468171142103A802F0D2FB02A846
:104C2000039001A804900121684681820021C1827D
:104C3000142101836088231D03AA08A9A2DF0FB0F5
:104C400030BD70B505460C46002D01D0002C00D1BA
:104C500070BD2088102804D0112807D050280FD10B
:104C600009E021462846FFF73FFF0AE02146284693
:104C7000FFF73DFF05E021462846FFF73CFF00E037
:104C800000BF00BF00BFE3E7F8B504460E46002CA6
:104C900001D0002E01D10E20F8BD0020C043A0811C
:104CA000306820610020A0730120207021786846C0
:104CB00081702349491E0180A21C69460120A0DFA2
:104CC0000546002D01D02846E6E731462046FFF78D
:104CD0003CFF0546002D01D02846DDE70020DBE73C
:104CE00037B584B004460D46002C02D10E2007B023
:104CF00030BDA0891349884202D0A07B002801D191
:104D00000820F4E76846008B142801DD0720EEE751
:104D100000200090019002900390A18868460180D5
:104D2000039506A80290012168468170A089694612
:104D3000A6DFDCE7426C652055617274000000005C
:104D4000E1FE0000FFFF0000F7B584B004460F4607
:104D500006980678B01C1F2803DC2079801C1F28C9
:104D600002DD0C2007B0F0BD1F20801B801E85B225
:104D70000295B11C781802A97DDF039003980028E2
:104D800001D00398EEE72068022808D16846008920
:104D9000A84204DC09200190684605890BE0082040
:104DA00001902079002804D02079A84201DC2579DF
:104DB00001E068460589681CC2B23046711CCEB25B
:104DC0003A543046721CD6B201993954069801788B
:104DD000A81C0818C1B2069801700020C2E7F8B5F7
:104DE00005460C462078001D1F2801DD0C20F8BD6B
:104DF000684679DF0646002E01D03046F7E70321EA
:104E00002278501C2070A95419212278501C20703F
:104E1000A954207841196846008800F08AFA217860
:104E2000401820700020E2E7F8B505460F46164608
:104E30001C466868002801D10720F8BD2078801C36
:104E4000298840181F2801DD0C20F6E72878401C2F
:104E5000C1B22278501C2070B1542178481C2070B7
:104E600077542A8823789819696802F04BFA2078D9
:104E70002978401820700020DFE730B5034610780D
:104E8000C01C1F2801DD0C2030BD02241578681CD1
:104E900010704C550A241578681C10704C55157804
:104EA000681C10704B550020EEE7FFB587B0064632
:104EB0001D46109C0020069020780590002747E0B2
:104EC000B900706841180A886846028149884181A2
:104ED000002203A902A864DF04900498002802D0ED
:104EE00004980BB0F0BD6846017B099881422ED131
:104EF0000698002801D0002000E0022001902078D0
:104F00006946097B4118019808181F2801DD0C200B
:104F1000E7E70698002809D12078401C2070227805
:104F2000511C08982170A85401200690207842193D
:104F300003A902A864DF04900498002801D0049813
:104F4000CFE720786946097B4018207000BF7F1C9E
:104F50003088B842B4DC0698002806D0217805983D
:104F6000401C081AC1B2059829540020B9E7FFB5C2
:104F700081B0074615460A9E009602223846049BD9
:104F80000299FFF792FF0446002C02D0204605B09C
:104F9000F0BD0096102229463846049BFFF785FF96
:104FA0000446002C01D02046F1E70020EFE701463F
:104FB0000888062808DB08881922D201904205DDFE
:104FC0000888E04A904201D00720704748880628A8
:104FD00008DB48881922D201904205DD4888D94A69
:104FE000904201D00720F0E70888D64A904208D0C6
:104FF0004888904205D008884A88904201DD072001
:10500000E3E70020E1E7F8B506460D4614462078B0
:10501000801D1F2801D90C20F8BD3046FFF7C7FFBF
:105020000746002F01D03846F6E705212278501CAC
:105030002070A95412212278501C2070A954227883
:105040005119308800F075F92178401820702278C5
:105050005119708800F06DF92178401820700020F7
:10506000DAE7F8B505460E4614462879801CC7B223
:105070002078801CC0191F2801DD0C20F8BD781C89
:10508000C1B22278501C2070B154FF212278501CEC
:105090002070B15422789119288800F04AF92178BB
:1050A00040182070A88800280EDDA868002801D1CB
:1050B0000720E3E7AA8823789819A96802F022F963
:1050C00020782979401820700020D7E7FEB50746E0
:1050D0000E461446786B002801D10720FEBD002043
:1050E000019032E0796B0C22019850430D18287919
:1050F000801CC0B200900098401CC1B22278501CA5
:105100002070B15416212278501C2070B15422789E
:105110009119288800F00DF9217840182070A8888E
:1051200000280EDDA868002801D10720D6E7AA884C
:1051300023789819A96802F0E5F8207829794018B1
:1051400020700198401CC0B201903820C15D0198C8
:105150008142C7DC0020C1E7F8B504460F46164679
:105160000025002030702068002809D032463946DA
:105170002046FFF7E9FD0546002D01D02846F8BD81
:105180006079002808D031463846FFF728FE0546EA
:10519000002D01D02846F2E7208900280BDD334698
:1051A0003A46012120460830FFF73EFE0546002D15
:1051B00001D02846E3E7206900280BD000202169B0
:1051C000085632463946FFF758FE0546002D01D0F5
:1051D0002846D4E7A08A00280CDD3B46062202219F
:1051E000204614300096FFF7C2FE0546002D01D080
:1051F0002846C4E7A08B00280CDD3B46072203218C
:1052000020461C300096FFF7B2FE0546002D01D067
:105210002846B4E7A08C00280CDD3B46152214215B
:10522000204624300096FFF7A2FE0546002D01D04F
:105230002846A4E7E06A002809D032463946E06AE9
:10524000FFF7E1FE0546002D01D0284697E7206BC9
:10525000002809D032463946206BFFF702FF054689
:10526000002D01D028468AE73820005D002809DD9E
:10527000324639462046FFF729FF0546002D01D06A
:1052800028467CE728467AE701460889002807D0A7
:10529000C868002804D0C86800780422104201D1F0
:1052A000072070470020FCE701460889002801DD3F
:1052B000072070470020FCE7F3B593B00D460021AE
:1052C000129111911398002814D01398FFF7DCFF66
:1052D0000446002C02D0204615B0F0BD12AA09A940
:1052E0001398FFF739FF0446002C01D02046F3E75E
:1052F00009AE00E00026002D13D02846FFF7D4FFAA
:105300000446002C01D02046E6E711AA01A9284650
:10531000FFF722FF0446002C01D02046DCE701AF56
:1053200000E0002710A803793A46017A304672DF80
:10533000D2E702460A70FF200002104000124870B7
:1053400002207047FFFF000001464888B74A1288D4
:10535000904206DB4888B54A5288904201DC012021
:1053600070470020FCE738B50546B1480088B149D0
:1053700088423BD0B0480078401CAF490870AF4825
:10538000007B097888420FDBA849A948008875DFAF
:105390000446002C07D0A9488069002803D0A748FC
:1053A00081692046884721E00020A3490870A3486E
:1053B000007C00280FD03B219D48008876DF044602
:1053C000002C07D09D488069002803D09B48816944
:1053D0002046884700BF99484069002806D0002031
:1053E0000090964841696846884700BF38BD70B54F
:1053F00005461C2229469148FEF7DEFE0020904912
:105400000870286800280BD008228848296801F015
:1054100079FF86487ADF0446002C08D0204670BD0C
:1054200082487BDF0446002C01D02046F7E70020AD
:10543000C0437F49088000207F490870814A0021CD
:10544000814800F0F9FEEAE710B57F48006800F0F7
:105450006BFF10BD38B57D48FFF776FF002829D1D6
:105460007748007800280AD074484069002820D086
:1054700000200090714841696846884719E06E48ED
:105480000078002802D16D48456801E06B488568C6
:10549000002229466C48006800F015FF0446002CE5
:1054A00007D066488069002803D064488169204697
:1054B00088470AE061484069002806D00120009032
:1054C0005E4841696846884700BF00205C49087013
:1054D00038BD10B50446A0885549088008222146E9
:1054E0000E315A4801F00EFF00205349087053480E
:1054F000C089002801D1FFF7ADFF10BD70B505468A
:105500000020C0434A49088000204B4908704E489B
:10551000006800F009FF0446002C07D04748806966
:10552000002803D0454881692046884770BD70B582
:105530000546AC1D20884149C989884220D1208B6D
:1055400002281DD100BF00BFA17EE27E12021143DE
:105550000846C107C90F002902D0FFF77BFF0FE003
:105560003948006800F0E0FE0646002E07D03348B8
:105570008069002803D0314881693046884700BFE0
:1055800070BD10B504460822A11D304801F0BAFED6
:10559000FFF760FF10BD10B504462088102806D024
:1055A000112808D012280ED0502810D107E020462C
:1055B000FFF78FFF0CE02046FFF7A0FF08E0204632
:1055C000FFF7B5FF04E02046FFF7DBFF00E000BF78
:1055D00000BF10BD38B5044608222146134801F02B
:1055E00091FE12487ADF0546002D1CD11748FFF7BF
:1055F000ABFE00280BD10120114908700B490C4863
:10560000008875DF054601200B4908700BE00B4848
:105610004069002806D0012000900848416968468A
:10562000884700BF0025284638BD00001220002012
:105630001C200020FFFF00001A2000202C24002046
:105640001020002067530100282000201E20002089
:1056500070B506460C46154629462046FEF79BFEC9
:1056600070BDF8B559480078002800D1F8BD5848F9
:105670000068002801D1012000E0002005465548BF
:105680000068002801D1012000E00020064600BF8C
:10569000002D14D168464EDF0446052C01D10125AA
:1056A0000CE0002C06D000BF4BA269212046FEF77B
:1056B00066FE03E0464900980968884700BF002E4F
:1056C0001AD153480088009069465248006860DF4C
:1056D0000446052C01D101260DE0002C06D000BFA8
:1056E0003DA280212046FEF74AFE04E049480068BA
:1056F00038490968884700BF002D02D0002E00D02D
:1057000000E0C5E700BF00BFB0E7FFB581B00C46C1
:1057100016461F46002C02D1072005B0F0BD2046DA
:105720008107890F01D1012100E00021002901D169
:105730000720F2E73748046035480680364807609E
:105740003649019810DF0546002D01D02846E4E7D0
:1057500001201E490870162023DFDEE710B511DF97
:105760000446002C01D0012000E0002017490870F9
:10577000204610BD0146002901D10E207047154872
:1057800001600020FAE70146002901D10E20704790
:105790000F4801600020FAE770B51F480068002834
:1057A00011D01D4800688047044600BF2546002DE3
:1057B00007D000BF08A2FF2133312846FEF7DFFDE6
:1057C00000BF00BF01E0FFF74CFF70BD2C200020A0
:1057D000402000203C2000202E2E5C2E2E5C2E2E01
:1057E0005C2E2E5C2E2E5C2E2E5C536F75726365C4
:1057F0005C73645F636F6D6D6F6E5C736F66746412
:1058000065766963655F68616E646C65722E6300BE
:105810003820002034200020302000205156010084
:1058200010B55248C06BC007C00F01D1FFF78BF80D
:1058300005E04E48C06BC007C00F00D103E04C48E4
:1058400080680128F5D100BF002049498860494897
:105850008069C0B210BD70B504460D4601260AE04D
:105860002046641E002804DB7D20C000FEF784FC77
:1058700001E0002603E03E4880680128F0D100BF27
:10588000002C05DB00203A4988603A48806928707E
:10589000304670BD10B504463448C06BC007C00F19
:1058A00001D1FFF750F83348C46105E02F48C06BC1
:1058B000C007C00F00D103E02D48C0690128F5D111
:1058C00000BF00202A49C86110BD70B504460026FB
:1058D0003046761C255C05E02846FFF7DBFF3046A6
:1058E000761C255C002DF7D170BDF8B507460C4637
:1058F00015461E46204600F026F80021304600F0EE
:105900002BF81C48C4604661069800280DD0384624
:1059100000F019F80021284600F01EF8154805612E
:105920008760012013494031C86213481149486219
:1059300004200860012011498860086000200C499B
:105940008860F8BD704701210522120707231B025A
:10595000D2188300D150704710B58A0005231B0769
:10596000072424021B1984001A5110BDC02F0040C7
:10597000002100400025004000509D000020004014
:1059800010B5002819DAFE4A03071B0F083B9B08D5
:105990009B00D2588307DC0EFF23A3409A438B075A
:1059A0001B0E8407E40EA3401A43F54B0407240F93
:1059B000083CA408A4001A5118E0F24A03231B0271
:1059C000D21883089B00D2588307DC0EFF23A34024
:1059D0009A438B071B0E8407E40EA3401A43E94B3E
:1059E000032424021B198408A4001A5110BD10B509
:1059F0000446E548846003211120FFF7C1FF10BD74
:105A000010B501200004E1494860E0494039486090
:105A1000112000F0D4FC112000F0C3FC0120DC496F
:105A200008602F20FEF7B8FB10BD10B51120012132
:105A30008140D44A8032116000BF01200004D34964
:105A40008860D249403988600120D14948602F20C0
:105A5000FEF7A2FB10BDF0B5024628205043CD4B07
:105A60001B68C118CC480068401C02D1CA480260BB
:105A700057E0C9488B68006828246043C54C2468F7
:105A800000198068834217D8C34800682823584308
:105A9000C04B1B68C01880688B68C31ABE4800687A
:105AA00028246043BB4C246800198360BA4800680E
:105AB0004862B948026034E08B68B74D2C682868AA
:105AC0000DE028254543B34E3668AD19AD685B1B24
:105AD000044628254543AF4E3668AD19686A451C13
:105AE00007D028254543AB4E3668AD19AD689D42B9
:105AF000E7D3451C0CD028254543A64E3668AD1982
:105B0000AD68EE1A28254543A24F3F68ED19AE60F7
:105B10008B604862282565439E4E3668AD196A62DF
:105B200000BFF0BD70B502469B4C2168084609E0F5
:105B3000904200D108E0014628244443954D2D6849
:105B40006419606A441CF3D100BF441C00D170BDCD
:105B5000814209D1904C246828256C438D4D2D68D5
:105B60006419646A8C4D2C6028244443894D2D6847
:105B70006419A36828244443864D2D686419656A16
:105B800028244C43834E3668A419656228244C436C
:105B9000804D2D686419606A441C0CD0282444434D
:105BA0007C4D2D686419A468E51828244443794E77
:105BB0003668A419A56000BFC9E710B5112000F030
:105BC000F7FB10BD10B5142000F0F2FB10BD70B54E
:105BD000044672480068002813D0704A216AE069C0
:105BE00012689047054600BF2E46002E07D000BF22
:105BF0006BA2FF2155313046FEF7C1FB00BF00BF4D
:105C000002E0E169206A884770BDF8B56248006823
:105C1000401C39D0002700F004FC04466C480168A1
:105C2000204600F001FC06465B48056811E028208C
:105C30006843584909684418A068B04200D90AE08E
:105C4000A068361AA068C719656A2046FFF7BFFF2B
:105C500000BF681CEBD100BF5E4800785E49097840
:105C6000884209D15C480078401CC0B25A4908708B
:105C7000022801D100200870574800788000574959
:105C80000F50FFF79FFF00BFF8BD01465148007855
:105C9000514A127890421DD04E480078401C4D4A1F
:105CA000107010460078022801D100201070494879
:105CB00000788000494A10580860454A0868126810
:105CC0008018434A1060104600680002000A106005
:105CD000012070470020086000BFFAE7FEB52E489B
:105CE000006801903E48007800903FE00098C000B6
:105CF0003C4909684418257834E0182068436168F5
:105D00000F18681CC5B2A078A84200D100253868D9
:105D1000022802D0032822D10EE0282178684843C7
:105D20001C4909684618307E002804D07868FFF7BF
:105D3000F9FE0020307613E00CE0174909682822AC
:105D40005143144A1268881800210176124A416AA8
:105D5000116000BF10480068401CEED100E000BF99
:105D600000BF00BF6078A842C7D100BF0098411EA5
:105D7000C9B200910028B9D107480168019833E001
:105D80001CED00E000E100E000150140401301407F
:105D900000100140442000205020002064200020FA
:105DA0002E2E5C2E2E5C2E2E5C2E2E5C2E2E5C2E2D
:105DB0002E5C536F757263655C6170705F636F6DAD
:105DC0006D6F6E5C6170705F74696D65722E6300DB
:105DD0005420002060200020612000205820002056
:105DE000492000204C200020814201D00120FEBD2E
:105DF0000020FCE7F0B50346002426E0FE4E36689E
:105E000028277E43FD4F3F68F01986689E4203D9DC
:105E10008668F61A86601CE086689B1B86683419C3
:105E2000002686600676F44E3568F34F466A3E607B
:105E30004669002E08D00E193602360AC660466939
:105E4000066116684662156000BFEB480068401C9A
:105E5000D4D100BFF0BDFEB50746E7480068029008
:105E6000E7480078019069E00198C000E5490968B9
:105E700045185CE0781C07D03E4628207043DF4977
:105E800009684418676A23E02978182359436A6827
:105E900050182978491C29702978AA78914201D193
:105EA00000212970466828217143D44A12688C1851
:105EB0000168012902D1217E002900D037E08168E4
:105EC000E160C1682161016961614169216200BFCE
:105ED000CD49E0680968401A0002000ACB498842AF
:105EE00008D2C949E068096800F09EFA21694018A3
:105EF000A06011E0C448E168006800F095FA0090E5
:105F000021690098814204D921690098081AA0608B
:105F100001E00020A06000BF0020E06020610120BF
:105F20002076801E60623046FFF795FD00BF781C2A
:105F3000A0D12878697888429CD100BF0198411E81
:105F4000C9B2019100288FD1AB4801680298814203
:105F500001D00120FEBD0020FCE7FEB50546A648A5
:105F60000068401C34D0A448006828214843A34955
:105F700009684018866800F054FA0290A248046844
:105F80002146029800F050FAC01C0190681C01D113
:105F9000FFF736FD0198B04201D2304600E001988B
:105FA00004192402240A20469949086000BF00F021
:105FB00038FA00900299009800F036FAC71C204683
:105FC000029900F031FA874201D9FFF7F6FD01E0AE
:105FD000FFF72BFDFEBDFEB50020C04301908A48AF
:105FE0000468854807686846FFF74FFE0546FFF7D7
:105FF00075FE0646002D05D001AA21460098FFF740
:10600000F9FE01260198FFF726FF002800D001269F
:10601000002E02D03846FFF7A0FFFEBD417070474A
:1060200070B502460B465078411C9078884200D1EA
:1060300000211078884201D1002070BD196050788D
:106040001826704355682C182046F6E7FFB581B036
:1060500005460E461746E9006A4A126888186946DE
:10606000FFF7DEFF0446002C02D1042005B0F0BD8E
:1060700001202060666000F0D4F9A060E760049819
:1060800020610A986061E9005E4A126888180099E8
:10609000FFF7C4FFFFF796FD0020E7E7F8B50446D9
:1060A0000E46E100574A126888186946FFF7B8FFA4
:1060B0000546002D01D10420F8BD022028606E6045
:1060C000E100504A126888180099FFF7A7FFFFF710
:1060D00079FD0020F0E738B50446E100494A12682E
:1060E00088186946FFF79CFF0546002D01D1042062
:1060F00038BD03202860001F6860E100414A126833
:1061000088180099FFF78AFFFFF75CFD0020EFE792
:1061100010B500203F49086000213E484160816081
:10612000C16000203B49403908604860FFF76DFDC1
:1061300010BD10B5FFF74FFF10BDFFB581B00E4683
:1061400017461C4620468107890F01D1012100E036
:106150000021002902D1072005B0F0BD002C01D19B
:106160000720F9E7FFF761FC2B490A9808602B48E4
:1061700006702248046000250CE0002128206843B6
:106180001E4A12681150282068431C4A1268801861
:1061900001766D1CB542F0DB282070430419032002
:1061A0001749087017480460183400250CE0E9000E
:1061B000144A126888180021017041708770446089
:1061C000182179430C196D1C032DF0DB0020C0430E
:1061D000094908600020124908701249087014200B
:1061E00000F0EDF803211420FFF7CAFB142000F0A3
:1061F000D8F8019818E0000050200020442000202A
:10620000492000204C20002054200020FFFF7F0068
:10621000401501404011014064200020482000202A
:106220006020002061200020FFF7E1FB00F0F9F87A
:106230008049086000208FE770B503460C467E4811
:106240000068002801D1082070BD002A01D1072074
:10625000FAE7002B01D10720F6E700211CE02820F7
:106260004843754D2D682858002814D10125282051
:106270004843714E36683550282048436E4D2D688E
:1062800040194460282048436B4D2D684019C26175
:1062900019600020D8E7491C684800788142DEDB9D
:1062A0000420D1E710B500F092F8012802D00328AD
:1062B00004D101E0002403E0012401E0022400BF36
:1062C00000BF204610BDFEB504460D4616465A488E
:1062D0000068002801D10820FEBD5848007884429B
:1062E00001D2052D01D20720F6E72820604352494C
:1062F00009680858012801D00820EDE728206043EC
:106300004D49096840184068012801D1284600E03D
:1063100000200746FFF7C6FF3B462A462146009667
:106320000190FFF793FED7E770B504464248006836
:10633000002801D1082070BD40480078844201D374
:106340000720F8E7282060433B49096808580128DE
:1063500001D00820EFE7FFF7A5FF05462146FFF72C
:106360009DFEE8E710B534480068002801D10820F8
:1063700010BDFFF797FF0446FFF7ADFEF8E710B535
:10638000044600F04EF82060002010BD70B50546B0
:106390000E4614463146284600F046F8206000209C
:1063A00070BDC206D20E01219140254A116070478E
:1063B000C206D20E01219140224A11607047C206E6
:1063C000D20E012191401F4A80321160704710B5F2
:1063D0001D484068C105C90D002920D00A46103A61
:1063E000104600280DDA184B1C330407240F083C14
:1063F000A408A4001B598407E40EE3401B069B0F6E
:106400000BE00F4B032424021B198408A4001B5922
:106410008407E40EE3401B069B0FD8B210BD042096
:10642000FCE70A48406870470246501A0002000A1A
:106430007047000054200020442000204820002005
:1064400000E100E000E200E000ED00E000150140A6
:10645000F0B502460C46002035E001238340194682
:1064600023460B422ED0D5680D4205D101235B0493
:10647000D5680D43D56004E003231B04D5688D4324
:10648000D56005252D0707263602AD198600AD59C2
:1064900003263604B5430526360707273F02F619BB
:1064A0008700F55105252D0707263602AD19860010
:1064B000AD591D430526360707273F02F619870009
:1064C000F55100BF401C2028C7D3F0BDF0B585B002
:1064D000EC4805690020EC49C86300263DE0142023
:1064E0007043EA49096844180120B040E849096846
:1064F000084230D0E068C043684021680840074641
:1065000039462046FFF7A4FFDE4800696840039043
:10651000039800280ED003980543E068C043684004
:1065200021680840009020460099FFF791FF0098ED
:10653000074300BFA068A843384001906068284026
:106540003840029001990298084303D022690199CA
:106550000298904700BF701CC6B2CE4800788642B1
:10656000BDDB05B0F0BD10B50146002028E01422C7
:106570004A43C64B1B689A58012383401A421ED0D7
:106580000522120707231B02D2188300D2580323C7
:106590001B049A4305231B07072424021B198400AC
:1065A0001A510522120707231B02D2188300D25862
:1065B00005231B07072424021B1984001A51401CC1
:1065C0002028D4D310BD70B505460C46002C01D14F
:1065D000072070BD20468107890F01D1012100E00D
:1065E0000021002901D10720F3E7A8480460AA4848
:1065F00005700020A7490870A5490860A6480078E2
:10660000142250430146A148006800F0DAFE002041
:10661000C043A2498860062001218140A04A116040
:1066200000BF012100F0F7F80620012181409D4ABA
:10663000116000BF0020CCE7F8B504460D461646B1
:106640001F4692480068002801D10820F8BD002F9D
:1066500001D10720FAE78F4800788F4909788842EE
:1066600001DB0420F2E7284630438A4909781422E6
:106670005143864A12685050864800781421484396
:1066800082490968401845608248007814214843CF
:106690007E490968401886607E4800781421484386
:1066A0007A490968401807617A480078207079486B
:1066B0000078401C774908702078FFF754FF0020CD
:1066C000C4E7F0B5024671480068002801D10820EF
:1066D000F0BD70480078824201DB0720F8E7002017
:1066E000694BD8636748046969480068002802D18B
:1066F00058066A4B586001209040654B1B68184350
:10670000634B1860002314205043604D2D684019DE
:10671000C360002140E001238B40184614235343FB
:106720005A4D2D68EB58034235D02546054202D01C
:1067300003231B040EE001235B0414255543534E31
:106740003668AD19ED680543142656434F4F3F6830
:10675000F619F56005252D0707263602AD198E00BE
:10676000AD5903263604B5430526360707273F02F1
:10677000F6198F00F55105252D0707263602AD19AC
:106780008E00AD591D430526360707273F02F6192F
:106790008F00F55100BF491C2029BCD3002097E78A
:1067A00010B5044639480068002801D1082010BD02
:1067B00038480078844201DB0720F8E72046FFF7DD
:1067C000D2FE0120A040324909688143304801606F
:1067D0000068002803D10120C007304988600020EC
:1067E000E5E710B5024629480068002801D10820D5
:1067F00010BD28480078824201DB0720F8E714200A
:106800005043224C246803191E4800691C6820402C
:1068100008600020ECE710B5002819DA224A0307C7
:106820001B0F083B9B089B00D2588307DC0EFF23FD
:10683000A3409A438B071B0E8407E40EA3401A4320
:10684000194B0407240F083CA408A4001A5118E0AF
:10685000144A03231B02D21883089B00D2588307D3
:10686000DC0EFF23A3409A438B071B0E8407E40E24
:10687000A3401A430B4B032424021B198408A400D1
:106880001A5110BD000500504061004068200020F2
:106890006C20002071200020702000200063004048
:1068A00080E200E000E100E01CED00E030B50346CE
:1068B000481CC004040C10468507AD0F01D101250A
:1068C00000E00025002D01D1072030BD794802608D
:1068D0001019794D28600020784D2870784D287067
:1068E00078480380784801800020EEE7F7B584B04F
:1068F0000C467448008884426BDC744D0020039081
:1069000000F0A4F802900298012814D003A82BDF0D
:106910000746022F01D172B60CE000BF0197019F1C
:10692000002F06D000BF6AA259210198FDF727FD6C
:1069300000BF00BF00BF6148007800F0B1F86049B7
:106940000978884206D05D480578007800F0A8F8FC
:106950005A4908700298012814D062B66846007B34
:106960002CDF0746022F0CD000BF0197019F002F9C
:1069700006D000BF56A261210198FDF700FD00BFBF
:1069800000BF00BF5148854221D0E900494A06981E
:10699000126850500498002811D0002C0FDD49498E
:1069A00009886943444A126888182246049900F00D
:1069B000A9FCE8003F4909684018848005E00020F0
:1069C000E9003C4A126889188880002600E0042605
:1069D00000E00926304607B0F0BDF8B505460E4682
:1069E00017460520009035480078354909788842D7
:1069F0001BD033480478007800F052F83049087012
:106A00003048008860432C49096840182860E0003D
:106A100028490968401880883080E00025490968C5
:106A2000085838600020009000BF0098F8BD0EB5EF
:106A300004E068468188009A029890476A4601A956
:106A400002A8FFF7CAFF0028F3D00EBD10B52D48ED
:106A50004068C105C90D002920D00A46103A1046E9
:106A600000280DDA274B1C330407240F083CA40828
:106A7000A4001B598407E40EE3401B069B0F0BE0A8
:106A8000214B032424021B198408A4001B598407EA
:106A9000E40EE3401B069B0FD8B210BD0420FCE7B8
:106AA000014609480088814201DA481C00E00020C4
:106AB000C0B2704774200020782000207D20002084
:106AC0007C2000207E20002080200020FFFF00008E
:106AD0002E2E5C2E2E5C2E2E5C2E2E5C2E2E5C2EF0
:106AE0002E5C536F757263655C6170705F636F6D70
:106AF0006D6F6E5C6170705F7363686564756C6503
:106B0000722E630000ED00E000E100E070B5064683
:106B10000525002400BF0FE0E0009F4A11583046D1
:106B200000F094FB002806D0E0009B4A80184168E2
:106B30003046884702E0641CAC42EDDB00BFAC424B
:106B400002D196A0FEF7C1FE70BD70B5054697480C
:106B50004069401C08D001221207126991B2934A81
:106B6000506900F075FC02E0012000074069401EFA
:106B700001210907096989B24843044611228C4959
:106B800051DF70BD10B589484069401C08D0012212
:106B90001207126991B2854A506900F059FC02E06F
:106BA000012000074069441E204650DF32210120A9
:106BB00000F056F910BD70B57C484069401C08D003
:106BC00001221207126991B2784A506900F040FC24
:106BD00002E0012000074069441E012109070969FC
:106BE00089B24C43207800281FDD2078FF281CDA6A
:106BF0006E484069401C08D001221207126991B208
:106C00006A4A506900F024FC02E001200007406954
:106C1000401E01210907096989B2484305464022FF
:106C200029466348FDF7C8FA09E062A1604800F010
:106C300021FB00215E4820300177FFF7A3FF604968
:106C4000012000F007F970BD5948704770B504463F
:106C5000204600F035FB06465AA1204600F0B4FB62
:106C600000280AD1FFF7F0FF0546FEF76BFEFFF79D
:106C7000EBFF0546FEF729FE05E0E11D4C4800F05C
:106C8000F9FAFFF77FFF70BD10B504462046FEF706
:106C900059FE4EA1204600F097FB002809D14EA0D6
:106CA000FEF713FE0121424820300177FFF76AFF0B
:106CB00008E049A0FEF709FE00213D482030017799
:106CC000FFF760FF10BD44A0FEF7FFFD00BFBFF35C
:106CD0004F8F42484249C860BFF34F8F00BF00BF8B
:106CE000FEE710B504463FA1204600F06DFB0028EA
:106CF00004D1E12040022E4988632AE03CA12046CD
:106D000000F062FB002804D1E120000228498863DA
:106D10001FE03AA1204600F057FB002804D14B2089
:106D200040022349886314E037A1204600F04CFB61
:106D3000002804D14B2000021D49886309E035A1D9
:106D4000204600F041FB002803D14B20C001184928
:106D50008863FFF717FF20A0FEF7B7FD10BD10B541
:106D600094B0044612A871DF10A8407A12A989785D
:106D700012AAD27812AB1B79009301920291039070
:106D800012A84379827926A105A800F0E9F905A89F
:106D9000FEF79BFD14B010BD842000204E4F542000
:106DA00046494E4420434D440A00000000100010A4
:106DB00048240020536D61727453686F775332001A
:106DC0004B6B010041542B4E414D450041542B412A
:106DD0004456454E300000004F4B0A000400FA05AF
:106DE00000ED00E041542B424F55443000000000BC
:106DF00041542B424F5544310000000041542B4276
:106E00004F5544320000000041542B424F5544334B
:106E10000000000041542B424F5544340000000054
:106E20002558255825582558255825580000000074
:106E30007047012037490860704710B5364A002175
:106E40003648FFF7F9F900221E2134480068FFF7A1
:106E50003AFA10BD0C224243314BD2189160704770
:106E600070B505460C460C2068432D494018446017
:106E700000221E2129480068FFF725FA70BD002274
:106E8000D2430C214143264BC9184A60704770B564
:106E90002048006800283BD00024002500201D4920
:106EA000086000BF29E00C2060431D49401840687D
:106EB00000280BDD0C20604340184068401E0C2168
:106EC0006143174A89184860012515E00C2060438A
:106ED00013494018406800280ED10C206043401828
:106EE0004068401E0C2161430D4A891848600C21FE
:106EF0006143891888688047641C052CD3DB002D0A
:106F000005D000221E2105480068FFF7DCF900BF0C
:106F100070BD0000AC200020336E0100EC2000208A
:106F2000B020002070B55748007F002813D056A02D
:106F3000FEF708FDFDF7A7FC172003210A461304FE
:106F40008C0023430524240707252D02641985009E
:106F5000635100BF31DF70BD002806D01D21012222
:106F60008A404C4B9A6000BF06E01D2101228A40F6
:106F7000484BDA6000BF00BF704770B505460C464D
:106F800045A0FEF7DFFC01204003044204D0474A3D
:106F900000210846FFF7AAFC0120C005044204D0E6
:106FA000FDF7D1FC42A0FEF7CDFC0120C005054253
:106FB0000AD064210220FFF753FF03210846FFF7A0
:106FC0004FFF46A0FEF7BEFC70BDF8B50920C043D8
:106FD00000901D2001210522120707231B02D21851
:106FE0008300D15000BF00BF47490320FFF7EBFAF1
:106FF000064600BF3746002F06D000BF43A20C2133
:107000003846FDF7BCF900BF00BF00BF03210D20CB
:1070100000F02EF80321172000F02AF8464C2546F0
:10702000464B2A4621464648FFF706FB0090444857
:107030000078FFF746FB00900120FFF78DFF41A08D
:10704000FEF780FC45490220FFF704FFF8BD08B5B4
:107050000020009069463A480078FFF7C2FB012102
:10706000C9050098084201D0012008BD0020FCE7B6
:1070700010B58A0005231B07072424021B1984006E
:107080001A5110BD68240020656E7465725F736CC0
:1070900065657000000500506770696F5F65766513
:1070A0006E745F68616E646C657200004148010037
:1070B00057414B4555505F424C455F5357495443E8
:1070C00048206576656E745F70696E735F68696786
:1070D000685F746F5F6C6F770000000057414B452D
:1070E00055505F424C455F5357495443482065769D
:1070F000656E745F70696E735F6C6F775F746F5FDE
:107100006869676800000000882400202E2E5C2E2D
:107110002E5C2E2E5C2E2E5C2E2E5C2E2E5C75731D
:1071200065725C757365725F626C655F636F6E74C8
:10713000726F6C2E63000000002080007B6F0100E6
:10714000F0200020757365725F626C655F636F6E1F
:1071500074726F6C20696E6974656400256F01003C
:107160000FB41CB5074B06AA7B44694600900598EE
:1071700000F07BFA0020694600F08AFA1CBC08BCCB
:1071800004B0184725050000F8B50E460446002057
:1071900020622046E1688847002829D0252802D0AF
:1071A0006268A16820E0E168204600278847050062
:1071B0001ED028464138192802D80127FF02203561
:1071C0003246204627602946FCF7B8FF002808D041
:1071D000012804D0F61DF608F6000836D9E7361D5A
:1071E000D7E762682846A1689047206A401CCFE72D
:1071F000206AF8BD70B504460D4621461068C046A9
:10720000C0462188090502D50F4A7A4402E00E4A99
:107210007A440E3223460021243305E00607360F58
:10722000965D5E54491C00090028F7D120780023A0
:10723000000705D5702D03D0002901D0113202239B
:10724000204600F0B5F970BDF204000030B50546E7
:107250000B462A461C781078521C5B1C002801D073
:10726000A042F7D0002C03D0002802D06D1CEFE71D
:10727000284630BD034670B502460B439B070FD12D
:107280000E4CE60100E008C208C91D1B9D433542B3
:10729000F9D0D9B21170521C00290DD01B0AF8E7A1
:1072A0000B78491C1370521C002B05D00B78491C1D
:1072B0001370521C002BF3D170BD000001010101BD
:1072C00030B5441C03E00178401C00290DD0810733
:1072D000F9D10B4BDD0104C8D11A91432940FAD0F2
:1072E000001B0A0603D0C01E30BD001B30BD0A04BF
:1072F00001D0801E30BD0902FCD0401E30BD000010
:1073000001010101F8B5042A2CD3830712D00B78B0
:10731000491C0370401C521E83070BD00B78491C7C
:107320000370401C521E830704D00B78491C037065
:10733000401C521E8B079B0F05D0C91ADF0020236B
:10734000DE1B08C90AE0FCF737FFF8BD1D4608C977
:10735000FD401C46B4402C4310C0121F042AF5D235
:10736000F308C91A521EF0D40B78491C0370401C54
:10737000521EEAD40B78491C0370401C521EE4D400
:1073800009780170F8BD01E004C0091F0429FBD28F
:107390008B0701D50280801CC90700D0027070479E
:1073A00000290BD0C30702D00270401C491E0229DD
:1073B00004D3830702D50280801C891EE3E70022E4
:1073C000EEE70022DFE70000024670B50A439207AD
:1073D0002AD11E4DEE0104C808C9541B9443344001
:1073E00017D0D0B2D9B2401A2106014310D190B2C1
:1073F00099B2401A210401430AD110021902000A6D
:10740000090A401A2102014302D1100E190E401A36
:1074100070BD9A42DFD010BA19BA884201D9012052
:1074200070BD0020C04370BD02780B78401C491C21
:10743000002A09D09A4207D102780B78401C491CD7
:10744000002A01D09A42EFD0D01A70BD010101018B
:10745000002203098B422CD3030A8B4211D3002351
:107460009C464EE003460B433CD4002243088B422B
:1074700031D303098B421CD3030A8B4201D39446B8
:107480003FE0C3098B4201D3CB01C01A52418309AB
:107490008B4201D38B01C01A524143098B4201D365
:1074A0004B01C01A524103098B4201D30B01C01A90
:1074B0005241C3088B4201D3CB00C01A524183080A
:1074C0008B4201D38B00C01A524143088B4201D337
:1074D0004B00C01A5241411A00D201465241104697
:1074E00070475DE0CA0F00D04942031000D340420C
:1074F000534000229C4603098B422DD3030A8B4242
:1075000012D3FC22890112BA030A8B420CD38901DF
:1075100092118B4208D3890192118B4204D38901C5
:107520003AD0921100E08909C3098B4201D3CB0103
:10753000C01A524183098B4201D38B01C01A5241B8
:1075400043098B4201D34B01C01A524103098B42BC
:1075500001D30B01C01A5241C3088B4201D3CB00A7
:10756000C01A524183088B4201D38B00C01A52418A
:10757000D9D243088B4201D34B00C01A5241411A61
:1075800000D20146634652415B10104601D340428F
:10759000002B00D54942704763465B1000D3404240
:1075A00001B50020C046C04602BD70477047704715
:1075B000FFB504460D4681B024300090216888064E
:1075C00004D51022E0699143216000E00120A84227
:1075D00001DD471B00E000270498A1697A19101803
:1075E000081AA0612078C00602D42046C046C046D2
:1075F000002608E003986268A168805D9047206AD1
:10760000401C761C206204988642F3DB2078C0067A
:107610000AD52046C046C04606E06268A168302010
:107620009047206A401C206238467F1E0028F4DC08
:1076300007E000986268A168405D9047206A401C9E
:10764000206228466D1E0028F3DC2046C046C04656
:107650002078000602D5022005B0F0BD0120FBE72E
:1076600001694A1C02610878704700B58FB0029129
:107670000021059105490193794403911146049035
:107680006846FFF781FD0FB000BD0000E5FFFFFF7A
:107690000A681070521C0A607047754600F022F8A4
:1076A000AE46050069465346C008C000854618B07E
:1076B00020B5FCF7ADFD60BC00274908B6460026A2
:1076C000C0C5C0C5C0C5C0C5C0C5C0C5C0C5C0C592
:1076D000403D49008D4670470446C046C04620469E
:1076E000FCF743FD00487047C424002001491820DE
:1076F000ABBEFEE72600020070470000E0FE00007F
:1077000030313233343536373839414243444546D7
:1077100040305800303132333435363738396162D1
:10772000636465664030780041542B4D414300410D
:10773000542B424F55440041542B4E414D4500417E
:10774000542B414456454E0041542B525354000093
:107750007077010000200020F400000004410100C7
:1077600064780100F420002034140000204101005E
:107770000024F400FFFF00000000000000000000F3
:1077800000000000000000000000000000000000F9
:1077900000000000000000000000000000000000E9
:1077A00000000000000000000000000000000000D9
:1077B00000000000000000000000000000000000C9
:1077C00000000000000000000000000000000000B9
:1077D00000000000000000000000000000000000A9
:1077E0000000000000000000000000000000000099
:1077F00000000000377701004D6C01003F77010069
:10780000896C010048770100C76C01002F770100E7
:10781000E36C0100287701005F6D010000000000AB
:1078200000000000FFFFFFFF316E010001000000BB
:10783000FFFFFFFF316E010002000000FFFFFFFFAE
:10784000316E010003000000FFFFFFFF316E0100F9
:1078500004000000FFFFFFFF316E01000000000088
:047860000100000023
:04000005000140C1F5
:00000001FF
